{
    "contractName": "MyNFT",
    "abi": [
        {
            "inputs": [
                {
                    "internalType": "string",
                    "name": "_name",
                    "type": "string"
                },
                {
                    "internalType": "string",
                    "name": "_symbol",
                    "type": "string"
                },
                {
                    "internalType": "string",
                    "name": "baseURI_",
                    "type": "string"
                }
            ],
            "stateMutability": "nonpayable",
            "type": "constructor"
        },
        {
            "anonymous": false,
            "inputs": [
                {
                    "indexed": true,
                    "internalType": "address",
                    "name": "owner",
                    "type": "address"
                },
                {
                    "indexed": true,
                    "internalType": "address",
                    "name": "approved",
                    "type": "address"
                },
                {
                    "indexed": true,
                    "internalType": "uint256",
                    "name": "tokenId",
                    "type": "uint256"
                }
            ],
            "name": "Approval",
            "type": "event"
        },
        {
            "anonymous": false,
            "inputs": [
                {
                    "indexed": true,
                    "internalType": "address",
                    "name": "owner",
                    "type": "address"
                },
                {
                    "indexed": true,
                    "internalType": "address",
                    "name": "operator",
                    "type": "address"
                },
                {
                    "indexed": false,
                    "internalType": "bool",
                    "name": "approved",
                    "type": "bool"
                }
            ],
            "name": "ApprovalForAll",
            "type": "event"
        },
        {
            "anonymous": false,
            "inputs": [
                {
                    "indexed": true,
                    "internalType": "address",
                    "name": "from",
                    "type": "address"
                },
                {
                    "indexed": true,
                    "internalType": "address",
                    "name": "to",
                    "type": "address"
                },
                {
                    "indexed": true,
                    "internalType": "uint256",
                    "name": "tokenId",
                    "type": "uint256"
                }
            ],
            "name": "Transfer",
            "type": "event"
        },
        {
            "inputs": [
                {
                    "internalType": "address",
                    "name": "_owner",
                    "type": "address"
                }
            ],
            "name": "balanceOf",
            "outputs": [
                {
                    "internalType": "uint256",
                    "name": "",
                    "type": "uint256"
                }
            ],
            "stateMutability": "view",
            "type": "function"
        },
        {
            "inputs": [
                {
                    "internalType": "address",
                    "name": "_to",
                    "type": "address"
                },
                {
                    "internalType": "string",
                    "name": "_imageData",
                    "type": "string"
                }
            ],
            "name": "mint",
            "outputs": [],
            "stateMutability": "nonpayable",
            "type": "function"
        },
        {
            "inputs": [],
            "name": "name",
            "outputs": [
                {
                    "internalType": "string",
                    "name": "",
                    "type": "string"
                }
            ],
            "stateMutability": "view",
            "type": "function"
        },
        {
            "inputs": [
                {
                    "internalType": "uint256",
                    "name": "_tokenId",
                    "type": "uint256"
                }
            ],
            "name": "ownerOf",
            "outputs": [
                {
                    "internalType": "address",
                    "name": "",
                    "type": "address"
                }
            ],
            "stateMutability": "view",
            "type": "function"
        },
        {
            "inputs": [
                {
                    "internalType": "string",
                    "name": "baseURI_",
                    "type": "string"
                }
            ],
            "name": "setBaseURI",
            "outputs": [],
            "stateMutability": "nonpayable",
            "type": "function"
        },
        {
            "inputs": [],
            "name": "symbol",
            "outputs": [
                {
                    "internalType": "string",
                    "name": "",
                    "type": "string"
                }
            ],
            "stateMutability": "view",
            "type": "function"
        },
        {
            "inputs": [
                {
                    "internalType": "uint256",
                    "name": "_tokenId",
                    "type": "uint256"
                }
            ],
            "name": "tokenImage",
            "outputs": [
                {
                    "internalType": "string",
                    "name": "",
                    "type": "string"
                }
            ],
            "stateMutability": "view",
            "type": "function"
        },
        {
            "inputs": [
                {
                    "internalType": "address",
                    "name": "_from",
                    "type": "address"
                },
                {
                    "internalType": "address",
                    "name": "_to",
                    "type": "address"
                },
                {
                    "internalType": "uint256",
                    "name": "_tokenId",
                    "type": "uint256"
                }
            ],
            "name": "transferFrom",
            "outputs": [],
            "stateMutability": "nonpayable",
            "type": "function"
        }
    ],
    "bytecode": "60806040523461046c57610e398038038061001981610470565b92833981019060608183031261046c5780516001600160401b03811161046c5782610045918301610495565b60208201519091906001600160401b03811161046c5783610067918301610495565b60408201519093906001600160401b03811161046c576100879201610495565b80519092906001600160401b0381116102a757600254600181811c91168015610462575b602082101461028957601f81116103ff575b506020601f821160011461039c57819293945f92610391575b50508160011b915f199060031b1c1916176002555b81516001600160401b0381116102a7575f54600181811c91168015610387575b602082101461028957601f8111610325575b50602092601f82116001146102c657928192935f926102bb575b50508160011b915f199060031b1c1916175f555b80516001600160401b0381116102a757600154600181811c9116801561029d575b602082101461028957601f8111610226575b50602091601f82116001146101c6579181925f926101bb575b50508160011b915f199060031b1c1916176001555b60405161095290816104e78239f35b015190505f80610197565b601f1982169260015f52805f20915f5b85811061020e575083600195106101f6575b505050811b016001556101ac565b01515f1960f88460031b161c191690555f80806101e8565b919260206001819286850151815501940192016101d6565b60015f527fb10e2d527612073b26eecdfd717e6a320cf44b4afac2b0732d9fcbe2b7fa0cf6601f830160051c8101916020841061027f575b601f0160051c01905b818110610274575061017e565b5f8155600101610267565b909150819061025e565b634e487b7160e01b5f52602260045260245ffd5b90607f169061016c565b634e487b7160e01b5f52604160045260245ffd5b015190505f80610137565b601f198216935f8052805f20915f5b86811061030d57508360019596106102f5575b505050811b015f5561014b565b01515f1960f88460031b161c191690555f80806102e8565b919260206001819286850151815501940192016102d5565b5f80527f290decd9548b62a8d60345a988386fc84ba6bc95484008f6362f93160ef3e563601f830160051c8101916020841061037d575b601f0160051c01905b818110610372575061011d565b5f8155600101610365565b909150819061035c565b90607f169061010b565b015190505f806100d6565b601f1982169060025f52805f20915f5b8181106103e7575095836001959697106103cf575b505050811b016002556100eb565b01515f1960f88460031b161c191690555f80806103c1565b9192602060018192868b0151815501940192016103ac565b60025f527f405787fa12a823e0f2b7631cc41b3ba8828b3321ca811111fa75cd3aa3bb5ace601f830160051c81019160208410610458575b601f0160051c01905b81811061044d57506100bd565b5f8155600101610440565b9091508190610437565b90607f16906100ab565b5f80fd5b6040519190601f01601f191682016001600160401b038111838210176102a757604052565b81601f8201121561046c578051906001600160401b0382116102a7576104c4601f8301601f1916602001610470565b928284526020838301011161046c57815f9260208093018386015e830101529056fe60806040526004361015610011575f80fd5b5f3560e01c806306fdde031461069c57806323b872dd1461055557806355f804b3146103f35780636352211e146103c357806370a082311461038057806395d89b41146102b6578063cf3484251461025a5763d0def52114610071575f80fd5b346102565760403660031901126102565761008a6107dc565b60243567ffffffffffffffff8111610256576100aa9036906004016107f2565b906001600160a01b03166100bf8115156108be565b6100ca600754610848565b9081600755815f52600360205260405f20816bffffffffffffffffffffffff60a01b825416179055805f52600460205260405f206101088154610848565b9055815f52600860205260405f20835167ffffffffffffffff81116102425761013182546106b8565b601f81116101fd575b50602094601f821160011461019c579481929394955f92610191575b50508160011b915f199060031b1c19161790555b5f7fddf252ad1be2c89b69c2b068fc378daa952ba7f163c4a11628f55a4df523b3ef8180a4005b015190505f80610156565b601f19821695835f52805f20915f5b8881106101e5575083600195969798106101cd575b505050811b01905561016a565b01515f1960f88460031b161c191690555f80806101c0565b919260206001819286850151815501940192016101ab565b825f5260205f20601f830160051c81019160208410610238575b601f0160051c01905b81811061022d575061013a565b5f8155600101610220565b9091508190610217565b634e487b7160e01b5f52604160045260245ffd5b5f80fd5b34610256576020366003190112610256576004355f81815260036020526040902054610290906001600160a01b03161515610856565b5f5260086020526102b26102a660405f20610712565b604051918291826107b2565b0390f35b34610256575f366003190112610256576040515f6001546102d6816106b8565b808452906001811690811561035c57506001146102fe575b6102b2836102a6818503826106f0565b60015f9081527fb10e2d527612073b26eecdfd717e6a320cf44b4afac2b0732d9fcbe2b7fa0cf6939250905b808210610342575090915081016020016102a66102ee565b91926001816020925483858801015201910190929161032a565b60ff191660208086019190915291151560051b840190910191506102a690506102ee565b34610256576020366003190112610256576001600160a01b036103a16107dc565b166103ad8115156108be565b5f526004602052602060405f2054604051908152f35b346102565760203660031901126102565760206103e1600435610899565b6040516001600160a01b039091168152f35b346102565760203660031901126102565760043567ffffffffffffffff8111610256576104249036906004016107f2565b805167ffffffffffffffff8111610242576104406002546106b8565b601f81116104ed575b50602091601f8211600114610485579181925f9261047a575b50505f19600383901b1c191660019190911b17600255005b015190508280610462565b601f1982169260025f525f5160206108fd5f395f51905f52915f5b8581106104d5575083600195106104bd575b505050811b01600255005b01515f1960f88460031b161c191690558280806104b2565b919260206001819286850151815501940192016104a0565b60025f52601f820160051c5f5160206108fd5f395f51905f52019060208310610540575b601f0160051c5f5160206108fd5f395f51905f5201905b8181106105355750610449565b5f8155600101610528565b5f5160206108fd5f395f51905f529150610511565b346102565760603660031901126102565761056e6107dc565b6024356001600160a01b03811690819003610256576044359161059083610899565b6001600160a01b03918216911681900361066b57811561063257805f52600460205260405f208054801561061e575f19019055815f52600460205260405f206105d98154610848565b90555f83815260036020526040812080546001600160a01b031916841790557fddf252ad1be2c89b69c2b068fc378daa952ba7f163c4a11628f55a4df523b3ef9080a4005b634e487b7160e01b5f52601160045260245ffd5b60405162461bcd60e51b8152602060048201526011602482015270125b9d985b1a59081c9958da5c1a595b9d607a1b6044820152606490fd5b60405162461bcd60e51b81526020600482015260096024820152682737ba1037bbb732b960b91b6044820152606490fd5b34610256575f366003190112610256576102b26102a65f610712565b90600182811c921680156106e6575b60208310146106d257565b634e487b7160e01b5f52602260045260245ffd5b91607f16916106c7565b90601f8019910116810190811067ffffffffffffffff82111761024257604052565b9060405191825f825492610725846106b8565b8084529360018116908115610790575060011461074c575b5061074a925003836106f0565b565b90505f9291925260205f20905f915b81831061077457505090602061074a928201015f61073d565b602091935080600191548385890101520191019091849261075b565b90506020925061074a94915060ff191682840152151560051b8201015f61073d565b602060409281835280519182918282860152018484015e5f828201840152601f01601f1916010190565b600435906001600160a01b038216820361025657565b81601f820112156102565780359067ffffffffffffffff82116102425760405192610827601f8401601f1916602001856106f0565b8284526020838301011161025657815f926020809301838601378301015290565b5f19811461061e5760010190565b1561085d57565b60405162461bcd60e51b8152602060048201526014602482015273151bdad95b88191bd95cc81b9bdd08195e1a5cdd60621b6044820152606490fd5b5f908152600360205260409020546001600160a01b03166108bb811515610856565b90565b156108c557565b60405162461bcd60e51b815260206004820152600f60248201526e496e76616c6964206164647265737360881b6044820152606490fdfe405787fa12a823e0f2b7631cc41b3ba8828b3321ca811111fa75cd3aa3bb5acea26469706673582212201600e67480350919b6054fa8acf81d65ecb24c1270196ef2ec609f345317bc4664736f6c634300081c0033",
    "sourcePath": "/home/apakou/projects/web3bridge-learning/ERC271-smart-contract/contracts/ERC721.sol",
    "compiler": {
        "name": "solc",
        "version": "0.8.28+commit.7893614a"
    },
    "functionHashes": {
        "balanceOf(address)": "70a08231",
        "mint(address,string)": "d0def521",
        "name()": "06fdde03",
        "ownerOf(uint256)": "6352211e",
        "setBaseURI(string)": "55f804b3",
        "symbol()": "95d89b41",
        "tokenImage(uint256)": "cf348425",
        "transferFrom(address,address,uint256)": "23b872dd"
    },
    "gasEstimates": {
        "creation": {
            "codeDepositCost": "477200",
            "executionCost": "infinite",
            "totalCost": "infinite"
        },
        "external": {
            "balanceOf(address)": "2535",
            "mint(address,string)": "infinite",
            "name()": "infinite",
            "ownerOf(uint256)": "2532",
            "setBaseURI(string)": "infinite",
            "symbol()": "infinite",
            "tokenImage(uint256)": "infinite",
            "transferFrom(address,address,uint256)": "77423"
        },
        "internal": {
            "_baseTokenURI()": "infinite"
        }
    }
}